:060000000A128A11E32F31
:100D10007C3400343D3400341E340034F300F201DE
:100D2000731C962E7008F1007108F2070310F00D85
:100D30000310F30CF308031D902E720808007E08C0
:100D40008A007F0882009F260A128A118000840A86
:100D500004087D0603190034FF0A0319FE0AA32EB6
:100D60000C3400341F3400343E3400345D3400341D
:100D700076340034063400340F3400341F34003429
:100D80002E3400343B340034033400340734003450
:100D90000F340034173400341D3400342C34003444
:100DA0001C3400342C3400343C3400343C340034E3
:100DB0001C3400342C3400341C3400343C340034F3
:100DC0001C3400340C3400343C3400342C340034F3
:100DD0001C3400342C3400345C3084008312031340
:100DE000660883138000840A67088000840A680804
:100DF0008000840A69088000840A6A088000840AE6
:100E00006B08800020308400A030F4000408F50056
:100E10001E30F6007408840083130008F700F40AFB
:100E20007508840077088000F50AF60B0A2F3E301B
:100E30008400BE30F4000408F5001E30F60074088B
:100E4000840083130008F700F40A7508840077080B
:100E50008000F50AF60B1F2FE401E501E201E30132
:100E60008316031387010F308600063083120313A5
:100E700092005C0883160313920083120313200868
:100E800095003E089700972F0130E4070318E50A04
:100E90000030E507033064066504031D512FE401AB
:100EA000E5016408F40074075C3E840083130008C5
:100EB000831603139200831203136208F4000130B7
:100EC0000310F40DFF3E031D602F0A30F500750876
:100ED000F00064080A128A118E260A128A11203E36
:100EE0007407F60076088400831300088312031346
:100EF00095006208F40001300310F40DFF3E031D5D
:100F00007C2F0A30F5007508F00064080A128A1177
:100F10008E260A128A113E3E7407F6007608840077
:100F2000831300088312031397000618952F0618E1
:100F3000442F861C972F0130E2070318E30A003084
:100F4000E307053062066304031DA82FE201E301F5
:100F50006208F40001300310F40DFF3E031DAB2FB7
:100F60000A30F5007508F00064080A128A118E260E
:100F70000A128A11203E7407F60076088400831353
:100F800000088312031395006208F4000130031077
:100F9000F40DFF3E031DC72F0A30F5007508F00061
:100FA00064080A128A118E260A128A113E3E7407BC
:100FB000F600760884008313000883120313970059
:100FC000861C972FE02F8313DC30FD000630FE00D7
:100FD000B030FF00A03084000A128A11A3260A1242
:100FE0008A116C30FD000630FE008830FF0066304C
:100FF00084000A128A11A32683010A128A11EC2E98
:00000001FF
